:02000000802E50
:1000300078089000CC11ACF580A311ACF590A31119
:10004000ACF5A0A311ACF5B0A311B0D8E88000794D
:10005000039000EC11ACF580A311ACF590A311ACAA
:10006000F5A0A311ACF5B0A311BED9E880007A08C1
:100070009000F811ACF580A311ACF590A311ACF58C
:10008000A0A311ACF5B0A311B0DAE880007B049016
:10009000011811ACF580A311ACF590A311ACF5A03B
:1000A000A311ACF5B0A311BEDBE8808474009322E9
:1000B0007F057EC87DF800DDFEDEF9DFF5227F01D9
:1000C0007EC87DF800DDFEDEF9DFF52280018001CB
:1000D000C003C003E007E007F00FF00FF81FF81FA0
:1000E000FC3FFC3FFE7FFE7FFFFFFFFF00000000A4
:1000F000FFFFFFFF00000000FFFFFFFFFE7FFE7F0E
:10010000FC3FFC3FF81FF81FF00FF00FE007E0077F
:10011000C003C003800180010000FFFFFFFF00005B
:080120000000FFFFFFFF0000DB
:00000001FF
