:10088C0020200880018001C003C003E007E007F0CE
:10089C000FF00FF81FF81FFC3FFC3FFE7FFE7FFFA1
:1008AC00FFFFFF0C2800000000FFFFFFFF0000000F
:1008BC0000202044FFFFFFFFFE7FFE7FFC3FFC3F3C
:1008CC00F81FF81FF00FF00FE007E007C003C0039C
:1008DC008001800110340000FFFFFFFF00000000CA
:0608EC00FFFFFFFF00000A
:10098600AB64AA65A9661209C874042566F566E40F
:040996003565F56569
:0C099A007F057EC87DF8DDFEDEFADFF68A
:0109A600222E
:1009A700AB64AA65A9661209C874042566F566E4EE
:0409B7003565F56548
:0C09BB007F017EC87DF8DDFEDEFADFF66D
:0109C700220D
:1009C800120940F580900001120959F59090000233
:0E09D800120959F5A0900003120959F5B0223A
:1008F300756400756500756608E4FC1209860CBC16
:1009030008F9756400756500756628E4FC1209A78B
:100913000CBC03F9756400756500756644E4FC124C
:1009230009860CBC08F9756400756500756634E4C6
:0D093300FCECC3940450B91209A70C80F429
:03000000020800F3
:0C080000787FE4F6D8FD75816602084799
:10094000BB010689828A83E0225002E722BBFE02B5
:09095000E32289828A83E49322E8
:10095900BB010CE58229F582E5833AF583E0225053
:1009690006E92582F8E622BBFE06E92582F8E2229D
:0D097900E58229F582E5833AF583E49322B7
:10080C000208F3E493A3F8E493A34003F68001F207
:10081C0008DFF48029E493A3F85407240CC8C333ED
:10082C00C4540F4420C8834004F456800146F6DFBC
:10083C00E4800B010204081020408090088CE47EB8
:10084C00019360BCA3FF543F30E509541FFEE493B1
:10085C00A360010ECF54C025E060A840B8E493A378
:10086C00FAE493A3F8E493A3C8C582C8CAC583CAA3
:10087C00F0A3C8C582C8CAC583CADFE9DEE780BE5B
:0108F2000005
:00000001FF
