:02000000802E50
:10003000780679057A047B079000D9119DF580A395
:10004000119DF590A3119DF5A0A3119DF5B0A311ED
:10005000CBD8E8119DF580A3119DF590A3119DF5D6
:10006000A0A3119DF5B0A311A1D9E8119DF580A31E
:10007000119DF590A3119DF5A0A3119DF5B0A311BD
:10008000AFDAE8119DF580A3119DF590A3119DF5C0
:10009000A0A3119DF5B0A311BDDBE880937400937C
:1000A000227F057EC87DF800DDFEDEF9DFF5227FC8
:1000B000037EC87DF800DDFEDEF9DFF5227F017EDC
:1000C000C87DF800DDFEDEF9DFF5227F0A7EC87DFF
:1000D000F800DDFEDEF9DFF52203030303CCCCCC10
:1000E000CC0F0F0F0FF0F0F0F0FF00FF0000FF004B
:1000F000FFFFFFFFFFEEEEEEEECCCCCCCC88888885
:1001000088000000001111111133333333777777F2
:1001100077FFFFFFFFC0C0C0C003030303E3388EB7
:10012000E31CC7711C00000000FFFFFFFF00000080
:0101300000CE
:00000001FF
