:02000000802E50
:1000300078059000BB118DF580A3118DF590A3116B
:100040008DF5A0A3118DF5B0A311ADD8E88000798E
:10005000079000CF118DF580A3118DF590A3118D20
:10006000F5A0A3118DF5B0A3119FD9E880007A0403
:100070009000E7118DF580A3118DF590A3118DF5FA
:10008000A0A3118DF5B0A31191DAE880A3740093B9
:10009000227F057EC87DF800DDFEDEF9DFF5227FD8
:1000A000057E647DF800DDFEDEF9DFF5227F017E4E
:1000B000C87DF800DDFEDEF9DFF522F0F0F0F00F8C
:1000C0000F0F0FFF0000FF00FFFF00FFFFFFFFAA61
:1000D000AAAAAA55555555CCCCCCCCE38E38E31CF6
:1000E00071C71C0000000088888888BBBBBBBBEEC2
:0700F000EEEEEEFFFFFFFF43
:00000001FF
