:02000000802E50
:10003000780579077A049000B11183F580A31183C4
:10004000F590A31183F5A0A31183F5B0A311A3D854
:10005000E81183F580A31183F590A31183F5A0A384
:100060001183F5B0A31195D9E81183F580A311830D
:10007000F590A31183F5A0A31183F5B0A31187DA3E
:10008000E880AD740093227F057EC87DF800DDFE18
:10009000DEF9DFF5227F057E647DF800DDFEDEF906
:1000A000DFF5227F017EC87DF800DDFEDEF9DFF599
:1000B00022F0F0F0F00F0F0F0FFF0000FF00FFFF26
:1000C00000FFFFFFFFAAAAAAAA55555555CCCCCCD4
:1000D000CCE38E38E31C71C71C00000000888888C0
:0D00E00088BBBBBBBBEEEEEEEEFFFFFFFFEB
:00000001FF
